{
  "_format": "hh-sol-artifact-1",
  "contractName": "Ownable",
  "sourceName": "contracts/PMMToken.sol",
  "abi": [
    {
      "anonymous": false,
      "inputs": [
        {
          "indexed": true,
          "internalType": "address",
          "name": "previousOwner",
          "type": "address"
        },
        {
          "indexed": true,
          "internalType": "address",
          "name": "newOwner",
          "type": "address"
        }
      ],
      "name": "OwnershipTransferred",
      "type": "event"
    },
    {
      "inputs": [],
      "name": "_owner",
      "outputs": [
        {
          "internalType": "address",
          "name": "",
          "type": "address"
        }
      ],
      "stateMutability": "view",
      "type": "function"
    },
    {
      "inputs": [],
      "name": "geUnlockTime",
      "outputs": [
        {
          "internalType": "uint256",
          "name": "",
          "type": "uint256"
        }
      ],
      "stateMutability": "view",
      "type": "function"
    },
    {
      "inputs": [
        {
          "internalType": "uint256",
          "name": "time",
          "type": "uint256"
        }
      ],
      "name": "lock",
      "outputs": [],
      "stateMutability": "nonpayable",
      "type": "function"
    },
    {
      "inputs": [],
      "name": "owner",
      "outputs": [
        {
          "internalType": "address",
          "name": "",
          "type": "address"
        }
      ],
      "stateMutability": "view",
      "type": "function"
    },
    {
      "inputs": [],
      "name": "renounceOwnership",
      "outputs": [],
      "stateMutability": "nonpayable",
      "type": "function"
    },
    {
      "inputs": [
        {
          "internalType": "address",
          "name": "newOwner",
          "type": "address"
        }
      ],
      "name": "transferOwnership",
      "outputs": [],
      "stateMutability": "nonpayable",
      "type": "function"
    },
    {
      "inputs": [],
      "name": "unlock",
      "outputs": [],
      "stateMutability": "nonpayable",
      "type": "function"
    }
  ],
  "bytecode": "0x608060405234801561001057600080fd5b5061051c806100206000396000f3fe608060405234801561001057600080fd5b506004361061007d5760003560e01c8063b2bdfa7b1161005b578063b2bdfa7b146100b8578063b6c52324146100c0578063dd467064146100da578063f2fde38b146100f75761007d565b8063715018a6146100825780638da5cb5b1461008c578063a69df4b5146100b0575b600080fd5b61008a61011d565b005b6100946101bf565b604080516001600160a01b039092168252519081900360200190f35b61008a6101ce565b6100946102bc565b6100c86102cb565b60408051918252519081900360200190f35b61008a600480360360208110156100f057600080fd5b50356102d1565b61008a6004803603602081101561010d57600080fd5b50356001600160a01b0316610381565b610125610479565b6000546001600160a01b03908116911614610187576040805162461bcd60e51b815260206004820181905260248201527f4f776e61626c653a2063616c6c6572206973206e6f7420746865206f776e6572604482015290519081900360640190fd5b600080546040516001600160a01b03909116906000805160206104a4833981519152908390a3600080546001600160a01b0319169055565b6000546001600160a01b031690565b6001546001600160a01b031633146102175760405162461bcd60e51b81526004018080602001828103825260238152602001806104c46023913960400191505060405180910390fd5b600254421161026d576040805162461bcd60e51b815260206004820152601f60248201527f436f6e7472616374206973206c6f636b656420756e74696c2037206461797300604482015290519081900360640190fd5b600154600080546040516001600160a01b0393841693909116916000805160206104a483398151915291a3600154600080546001600160a01b0319166001600160a01b03909216919091179055565b6000546001600160a01b031681565b60025490565b6102d9610479565b6000546001600160a01b0390811691161461033b576040805162461bcd60e51b815260206004820181905260248201527f4f776e61626c653a2063616c6c6572206973206e6f7420746865206f776e6572604482015290519081900360640190fd5b60008054600180546001600160a01b03199081166001600160a01b0384161790915516815542820160025560405181906000805160206104a4833981519152908290a350565b610389610479565b6000546001600160a01b039081169116146103eb576040805162461bcd60e51b815260206004820181905260248201527f4f776e61626c653a2063616c6c6572206973206e6f7420746865206f776e6572604482015290519081900360640190fd5b6001600160a01b0381166104305760405162461bcd60e51b815260040180806020018281038252602681526020018061047e6026913960400191505060405180910390fd5b600080546040516001600160a01b03808516939216916000805160206104a483398151915291a3600080546001600160a01b0319166001600160a01b0392909216919091179055565b339056fe4f776e61626c653a206e6577206f776e657220697320746865207a65726f20616464726573738be0079c531659141344cd1fd0a4f28419497f9722a3daafe3b4186f6b6457e0596f7520646f6e27742068617665207065726d697373696f6e20746f20756e6c6f636ba2646970667358221220a60f18935507850f6e3479fabba747cfb0a6d9f9eebaae1b258c929a032f007864736f6c634300060c0033",
  "linkReferences": {},
  "deployedLinkReferences": {}
}