{
  "_format": "hh-sol-artifact-1",
  "contractName": "DynamicTaxToken",
  "sourceName": "contracts/DynamicTaxToken.sol",
  "abi": [
    {
      "inputs": [
        {
          "internalType": "string",
          "name": "name",
          "type": "string"
        },
        {
          "internalType": "string",
          "name": "symbol",
          "type": "string"
        },
        {
          "internalType": "address",
          "name": "routerAddress",
          "type": "address"
        },
        {
          "internalType": "address",
          "name": "_nodeAddress",
          "type": "address"
        },
        {
          "internalType": "address",
          "name": "_devAddress",
          "type": "address"
        },
        {
          "internalType": "address",
          "name": "_initialSupplyRecipient",
          "type": "address"
        }
      ],
      "stateMutability": "nonpayable",
      "type": "constructor"
    },
    {
      "anonymous": false,
      "inputs": [
        {
          "indexed": true,
          "internalType": "address",
          "name": "owner",
          "type": "address"
        },
        {
          "indexed": true,
          "internalType": "address",
          "name": "spender",
          "type": "address"
        },
        {
          "indexed": false,
          "internalType": "uint256",
          "name": "value",
          "type": "uint256"
        }
      ],
      "name": "Approval",
      "type": "event"
    },
    {
      "anonymous": false,
      "inputs": [
        {
          "indexed": true,
          "internalType": "address",
          "name": "from",
          "type": "address"
        },
        {
          "indexed": false,
          "internalType": "uint256",
          "name": "amount",
          "type": "uint256"
        }
      ],
      "name": "Burn",
      "type": "event"
    },
    {
      "anonymous": false,
      "inputs": [
        {
          "indexed": true,
          "internalType": "address",
          "name": "previousOwner",
          "type": "address"
        },
        {
          "indexed": true,
          "internalType": "address",
          "name": "newOwner",
          "type": "address"
        }
      ],
      "name": "OwnershipTransferred",
      "type": "event"
    },
    {
      "anonymous": false,
      "inputs": [
        {
          "indexed": false,
          "internalType": "uint256",
          "name": "initialPrice",
          "type": "uint256"
        }
      ],
      "name": "PriceInitialized",
      "type": "event"
    },
    {
      "anonymous": false,
      "inputs": [
        {
          "indexed": false,
          "internalType": "uint256",
          "name": "oldStage",
          "type": "uint256"
        },
        {
          "indexed": false,
          "internalType": "uint256",
          "name": "newStage",
          "type": "uint256"
        },
        {
          "indexed": false,
          "internalType": "uint256",
          "name": "multiplier",
          "type": "uint256"
        }
      ],
      "name": "PriceStageChanged",
      "type": "event"
    },
    {
      "anonymous": false,
      "inputs": [
        {
          "indexed": false,
          "internalType": "uint256",
          "name": "tokensSwapped",
          "type": "uint256"
        },
        {
          "indexed": false,
          "internalType": "uint256",
          "name": "ethReceived",
          "type": "uint256"
        },
        {
          "indexed": false,
          "internalType": "uint256",
          "name": "tokensIntoLiquidity",
          "type": "uint256"
        }
      ],
      "name": "SwapAndLiquify",
      "type": "event"
    },
    {
      "anonymous": false,
      "inputs": [
        {
          "indexed": true,
          "internalType": "address",
          "name": "from",
          "type": "address"
        },
        {
          "indexed": true,
          "internalType": "address",
          "name": "to",
          "type": "address"
        },
        {
          "indexed": false,
          "internalType": "uint256",
          "name": "value",
          "type": "uint256"
        }
      ],
      "name": "Transfer",
      "type": "event"
    },
    {
      "inputs": [],
      "name": "BURN_FEE",
      "outputs": [
        {
          "internalType": "uint256",
          "name": "",
          "type": "uint256"
        }
      ],
      "stateMutability": "view",
      "type": "function"
    },
    {
      "inputs": [],
      "name": "DEV_FEE",
      "outputs": [
        {
          "internalType": "uint256",
          "name": "",
          "type": "uint256"
        }
      ],
      "stateMutability": "view",
      "type": "function"
    },
    {
      "inputs": [],
      "name": "LP_FEE",
      "outputs": [
        {
          "internalType": "uint256",
          "name": "",
          "type": "uint256"
        }
      ],
      "stateMutability": "view",
      "type": "function"
    },
    {
      "inputs": [],
      "name": "NODE_FEE",
      "outputs": [
        {
          "internalType": "uint256",
          "name": "",
          "type": "uint256"
        }
      ],
      "stateMutability": "view",
      "type": "function"
    },
    {
      "inputs": [],
      "name": "TAX_RATE_1_50",
      "outputs": [
        {
          "internalType": "uint256",
          "name": "",
          "type": "uint256"
        }
      ],
      "stateMutability": "view",
      "type": "function"
    },
    {
      "inputs": [],
      "name": "TAX_RATE_500_1000",
      "outputs": [
        {
          "internalType": "uint256",
          "name": "",
          "type": "uint256"
        }
      ],
      "stateMutability": "view",
      "type": "function"
    },
    {
      "inputs": [],
      "name": "TAX_RATE_51_100",
      "outputs": [
        {
          "internalType": "uint256",
          "name": "",
          "type": "uint256"
        }
      ],
      "stateMutability": "view",
      "type": "function"
    },
    {
      "inputs": [],
      "name": "TOTAL_FIXED_FEE",
      "outputs": [
        {
          "internalType": "uint256",
          "name": "",
          "type": "uint256"
        }
      ],
      "stateMutability": "view",
      "type": "function"
    },
    {
      "inputs": [
        {
          "internalType": "address",
          "name": "owner",
          "type": "address"
        },
        {
          "internalType": "address",
          "name": "spender",
          "type": "address"
        }
      ],
      "name": "allowance",
      "outputs": [
        {
          "internalType": "uint256",
          "name": "",
          "type": "uint256"
        }
      ],
      "stateMutability": "view",
      "type": "function"
    },
    {
      "inputs": [
        {
          "internalType": "address",
          "name": "spender",
          "type": "address"
        },
        {
          "internalType": "uint256",
          "name": "amount",
          "type": "uint256"
        }
      ],
      "name": "approve",
      "outputs": [
        {
          "internalType": "bool",
          "name": "",
          "type": "bool"
        }
      ],
      "stateMutability": "nonpayable",
      "type": "function"
    },
    {
      "inputs": [
        {
          "internalType": "address",
          "name": "account",
          "type": "address"
        }
      ],
      "name": "balanceOf",
      "outputs": [
        {
          "internalType": "uint256",
          "name": "",
          "type": "uint256"
        }
      ],
      "stateMutability": "view",
      "type": "function"
    },
    {
      "inputs": [],
      "name": "calculateDynamicTax",
      "outputs": [
        {
          "internalType": "uint256",
          "name": "",
          "type": "uint256"
        }
      ],
      "stateMutability": "view",
      "type": "function"
    },
    {
      "inputs": [],
      "name": "currentPriceStage",
      "outputs": [
        {
          "internalType": "uint256",
          "name": "",
          "type": "uint256"
        }
      ],
      "stateMutability": "view",
      "type": "function"
    },
    {
      "inputs": [],
      "name": "decimals",
      "outputs": [
        {
          "internalType": "uint8",
          "name": "",
          "type": "uint8"
        }
      ],
      "stateMutability": "view",
      "type": "function"
    },
    {
      "inputs": [
        {
          "internalType": "address",
          "name": "spender",
          "type": "address"
        },
        {
          "internalType": "uint256",
          "name": "subtractedValue",
          "type": "uint256"
        }
      ],
      "name": "decreaseAllowance",
      "outputs": [
        {
          "internalType": "bool",
          "name": "",
          "type": "bool"
        }
      ],
      "stateMutability": "nonpayable",
      "type": "function"
    },
    {
      "inputs": [],
      "name": "devAddress",
      "outputs": [
        {
          "internalType": "address",
          "name": "",
          "type": "address"
        }
      ],
      "stateMutability": "view",
      "type": "function"
    },
    {
      "inputs": [],
      "name": "getCurrentPriceMultiplier",
      "outputs": [
        {
          "internalType": "uint256",
          "name": "",
          "type": "uint256"
        }
      ],
      "stateMutability": "view",
      "type": "function"
    },
    {
      "inputs": [
        {
          "internalType": "address",
          "name": "spender",
          "type": "address"
        },
        {
          "internalType": "uint256",
          "name": "addedValue",
          "type": "uint256"
        }
      ],
      "name": "increaseAllowance",
      "outputs": [
        {
          "internalType": "bool",
          "name": "",
          "type": "bool"
        }
      ],
      "stateMutability": "nonpayable",
      "type": "function"
    },
    {
      "inputs": [],
      "name": "initialPrice",
      "outputs": [
        {
          "internalType": "uint256",
          "name": "",
          "type": "uint256"
        }
      ],
      "stateMutability": "view",
      "type": "function"
    },
    {
      "inputs": [
        {
          "internalType": "address",
          "name": "",
          "type": "address"
        }
      ],
      "name": "isExcludedFromFee",
      "outputs": [
        {
          "internalType": "bool",
          "name": "",
          "type": "bool"
        }
      ],
      "stateMutability": "view",
      "type": "function"
    },
    {
      "inputs": [],
      "name": "lastTargetStage",
      "outputs": [
        {
          "internalType": "uint256",
          "name": "",
          "type": "uint256"
        }
      ],
      "stateMutability": "view",
      "type": "function"
    },
    {
      "inputs": [],
      "name": "name",
      "outputs": [
        {
          "internalType": "string",
          "name": "",
          "type": "string"
        }
      ],
      "stateMutability": "view",
      "type": "function"
    },
    {
      "inputs": [],
      "name": "nodeAddress",
      "outputs": [
        {
          "internalType": "address",
          "name": "",
          "type": "address"
        }
      ],
      "stateMutability": "view",
      "type": "function"
    },
    {
      "inputs": [],
      "name": "owner",
      "outputs": [
        {
          "internalType": "address",
          "name": "",
          "type": "address"
        }
      ],
      "stateMutability": "view",
      "type": "function"
    },
    {
      "inputs": [],
      "name": "pendingStageStartBlock",
      "outputs": [
        {
          "internalType": "uint256",
          "name": "",
          "type": "uint256"
        }
      ],
      "stateMutability": "view",
      "type": "function"
    },
    {
      "inputs": [],
      "name": "pendingTargetStage",
      "outputs": [
        {
          "internalType": "uint256",
          "name": "",
          "type": "uint256"
        }
      ],
      "stateMutability": "view",
      "type": "function"
    },
    {
      "inputs": [],
      "name": "priceInitialized",
      "outputs": [
        {
          "internalType": "bool",
          "name": "",
          "type": "bool"
        }
      ],
      "stateMutability": "view",
      "type": "function"
    },
    {
      "inputs": [],
      "name": "renounceOwnership",
      "outputs": [],
      "stateMutability": "nonpayable",
      "type": "function"
    },
    {
      "inputs": [
        {
          "internalType": "address",
          "name": "_devAddress",
          "type": "address"
        }
      ],
      "name": "setDevAddress",
      "outputs": [],
      "stateMutability": "nonpayable",
      "type": "function"
    },
    {
      "inputs": [
        {
          "internalType": "address",
          "name": "_nodeAddress",
          "type": "address"
        }
      ],
      "name": "setNodeAddress",
      "outputs": [],
      "stateMutability": "nonpayable",
      "type": "function"
    },
    {
      "inputs": [],
      "name": "stageStartBlock",
      "outputs": [
        {
          "internalType": "uint256",
          "name": "",
          "type": "uint256"
        }
      ],
      "stateMutability": "view",
      "type": "function"
    },
    {
      "inputs": [],
      "name": "symbol",
      "outputs": [
        {
          "internalType": "string",
          "name": "",
          "type": "string"
        }
      ],
      "stateMutability": "view",
      "type": "function"
    },
    {
      "inputs": [],
      "name": "totalSupply",
      "outputs": [
        {
          "internalType": "uint256",
          "name": "",
          "type": "uint256"
        }
      ],
      "stateMutability": "view",
      "type": "function"
    },
    {
      "inputs": [
        {
          "internalType": "address",
          "name": "recipient",
          "type": "address"
        },
        {
          "internalType": "uint256",
          "name": "amount",
          "type": "uint256"
        }
      ],
      "name": "transfer",
      "outputs": [
        {
          "internalType": "bool",
          "name": "",
          "type": "bool"
        }
      ],
      "stateMutability": "nonpayable",
      "type": "function"
    },
    {
      "inputs": [
        {
          "internalType": "address",
          "name": "sender",
          "type": "address"
        },
        {
          "internalType": "address",
          "name": "recipient",
          "type": "address"
        },
        {
          "internalType": "uint256",
          "name": "amount",
          "type": "uint256"
        }
      ],
      "name": "transferFrom",
      "outputs": [
        {
          "internalType": "bool",
          "name": "",
          "type": "bool"
        }
      ],
      "stateMutability": "nonpayable",
      "type": "function"
    },
    {
      "inputs": [
        {
          "internalType": "address",
          "name": "newOwner",
          "type": "address"
        }
      ],
      "name": "transferOwnership",
      "outputs": [],
      "stateMutability": "nonpayable",
      "type": "function"
    },
    {
      "inputs": [],
      "name": "uniswapV2Pair",
      "outputs": [
        {
          "internalType": "address",
          "name": "",
          "type": "address"
        }
      ],
      "stateMutability": "view",
      "type": "function"
    },
    {
      "inputs": [],
      "name": "uniswapV2Router",
      "outputs": [
        {
          "internalType": "contract IUniswapV2Router02",
          "name": "",
          "type": "address"
        }
      ],
      "stateMutability": "view",
      "type": "function"
    },
    {
      "stateMutability": "payable",
      "type": "receive"
    }
  ],
  "bytecode": "0x60806040523480156200001157600080fd5b50604051620028fd380380620028fd833981810160405260c08110156200003757600080fd5b81019080805160405193929190846401000000008211156200005857600080fd5b9083019060208201858111156200006e57600080fd5b82516401000000008111828201881017156200008957600080fd5b82525081516020918201929091019080838360005b83811015620000b85781810151838201526020016200009e565b50505050905090810190601f168015620000e65780820380516001836020036101000a031916815260200191505b50604052602001805160405193929190846401000000008211156200010a57600080fd5b9083019060208201858111156200012057600080fd5b82516401000000008111828201881017156200013b57600080fd5b82525081516020918201929091019080838360005b838110156200016a57818101518382015260200162000150565b50505050905090810190601f168015620001985780820380516001836020036101000a031916815260200191505b50604090815260208281015191830151606084015160809094015188519396509094509187918791620001d2916003919085019062000784565b508051620001e890600490602084019062000784565b50506005805460ff19166012179055506000620002046200060a565b60058054610100600160a81b0319166101006001600160a01b03841690810291909117909155604051919250906000907f8be0079c531659141344cd1fd0a4f28419497f9722a3daafe3b4186f6b6457e0908290a3506001600160a01b038416620002b6576040805162461bcd60e51b815260206004820152601d60248201527f526f7574657220616464726573732063616e6e6f74206265207a65726f000000604482015290519081900360640190fd5b6001600160a01b03831662000312576040805162461bcd60e51b815260206004820152601b60248201527f4e6f646520616464726573732063616e6e6f74206265207a65726f0000000000604482015290519081900360640190fd5b6001600160a01b0382166200036e576040805162461bcd60e51b815260206004820152601a60248201527f44657620616464726573732063616e6e6f74206265207a65726f000000000000604482015290519081900360640190fd5b6001600160a01b038116620003b55760405162461bcd60e51b8152600401808060200182810382526027815260200180620028d66027913960400191505060405180910390fd5b6000849050806001600160a01b031663c45a01556040518163ffffffff1660e01b815260040160206040518083038186803b158015620003f457600080fd5b505afa15801562000409573d6000803e3d6000fd5b505050506040513d60208110156200042057600080fd5b5051604080516315ab88c960e31b815290516001600160a01b039283169263c9c653969230929186169163ad5c464891600480820192602092909190829003018186803b1580156200047157600080fd5b505afa15801562000486573d6000803e3d6000fd5b505050506040513d60208110156200049d57600080fd5b5051604080516001600160e01b031960e086901b1681526001600160a01b0393841660048201529290911660248301525160448083019260209291908290030181600087803b158015620004f057600080fd5b505af115801562000505573d6000803e3d6000fd5b505050506040513d60208110156200051c57600080fd5b5051600880546001600160a01b03199081166001600160a01b039384161790915560098054821684841617905560068054821687841617905560078054909116918516919091179055306000908152601160205260409020805460ff1916600117905562000598826c02a68bedbb190931f6500000006200060e565b66017af4c4a80aaa600a819055600b805460ff19166001908117909155600c81905543600d55600e556000600f81905560105560408051918252517fbac42e18b8433226e361e7d0f0dba3fcfc2c59068c09ff42cfcbc057c4f6a3019181900360200190a15050505050505062000820565b3390565b6001600160a01b0382166200066a576040805162461bcd60e51b815260206004820152601f60248201527f45524332303a206d696e7420746f20746865207a65726f206164647265737300604482015290519081900360640190fd5b62000678600083836200071d565b62000694816002546200072260201b6200108b1790919060201c565b6002556001600160a01b03821660009081526020818152604090912054620006c79183906200108b62000722821b17901c565b6001600160a01b0383166000818152602081815260408083209490945583518581529351929391927fddf252ad1be2c89b69c2b068fc378daa952ba7f163c4a11628f55a4df523b3ef9281900390910190a35050565b505050565b6000828201838110156200077d576040805162461bcd60e51b815260206004820152601b60248201527f536166654d6174683a206164646974696f6e206f766572666c6f770000000000604482015290519081900360640190fd5b9392505050565b828054600181600116156101000203166002900490600052602060002090601f016020900481019282601f10620007c757805160ff1916838001178555620007f7565b82800160010185558215620007f7579182015b82811115620007f7578251825591602001919060010190620007da565b506200080592915062000809565b5090565b5b808211156200080557600081556001016200080a565b6120a680620008306000396000f3fe6080604052600436106102295760003560e01c806370a0823111610123578063a9059cbb116100ab578063e63f9dfb1161006f578063e63f9dfb146106cd578063ec3c0cca146106e2578063ee292a30146106f7578063f19218421461072a578063f2fde38b1461073f57610230565b8063a9059cbb146105fc578063baec89c314610635578063d0d41fe11461064a578063dd62ed3e1461067d578063dd98bc9c146106b857610230565b80638da5cb5b116100f25780638da5cb5b1461058457806395d89b4114610599578063a43baf58146105ae578063a457c2d7146105c3578063a753130c1461048957610230565b806370a0823114610510578063715018a6146105435780637b54ee501461055a57806383e3c4631461056f57610230565b8063313ce567116101b1578063480df05811610175578063480df0581461048957806349bd5a5e1461049e5780635342acb4146104b35780635da4e302146104e65780635e3f2727146104fb57610230565b8063313ce567146103fb57806331b8e48d14610426578063395093511461043b5780633ad10ef614610474578063436a88c11461048957610230565b806318160ddd116101f857806318160ddd146103645780631d0806ae1461037957806323b872dd1461038e578063282ea3c2146103d15780632aa8481f146103e657610230565b806306fdde0314610235578063095ea7b3146102bf57806313a192f91461030c5780631694505e1461033357610230565b3661023057005b600080fd5b34801561024157600080fd5b5061024a610772565b6040805160208082528351818301528351919283929083019185019080838360005b8381101561028457818101518382015260200161026c565b50505050905090810190601f1680156102b15780820380516001836020036101000a031916815260200191505b509250505060405180910390f35b3480156102cb57600080fd5b506102f8600480360360408110156102e257600080fd5b506001600160a01b038135169060200135610809565b604080519115158252519081900360200190f35b34801561031857600080fd5b50610321610827565b60408051918252519081900360200190f35b34801561033f57600080fd5b5061034861082d565b604080516001600160a01b039092168252519081900360200190f35b34801561037057600080fd5b5061032161083c565b34801561038557600080fd5b50610321610842565b34801561039a57600080fd5b506102f8600480360360608110156103b157600080fd5b506001600160a01b03813581169160208101359091169060400135610848565b3480156103dd57600080fd5b506103216108cf565b3480156103f257600080fd5b506103486108d4565b34801561040757600080fd5b506104106108e3565b6040805160ff9092168252519081900360200190f35b34801561043257600080fd5b506103216108ec565b34801561044757600080fd5b506102f86004803603604081101561045e57600080fd5b506001600160a01b0381351690602001356108f1565b34801561048057600080fd5b5061034861093f565b34801561049557600080fd5b5061032161094e565b3480156104aa57600080fd5b50610348610953565b3480156104bf57600080fd5b506102f8600480360360208110156104d657600080fd5b50356001600160a01b0316610962565b3480156104f257600080fd5b50610321610977565b34801561050757600080fd5b5061032161097d565b34801561051c57600080fd5b506103216004803603602081101561053357600080fd5b50356001600160a01b0316610982565b34801561054f57600080fd5b5061055861099d565b005b34801561056657600080fd5b50610321610a4f565b34801561057b57600080fd5b50610321610aa5565b34801561059057600080fd5b50610348610c7e565b3480156105a557600080fd5b5061024a610c92565b3480156105ba57600080fd5b50610321610cf3565b3480156105cf57600080fd5b506102f8600480360360408110156105e657600080fd5b506001600160a01b038135169060200135610cf9565b34801561060857600080fd5b506102f86004803603604081101561061f57600080fd5b506001600160a01b038135169060200135610d61565b34801561064157600080fd5b50610321610d75565b34801561065657600080fd5b506105586004803603602081101561066d57600080fd5b50356001600160a01b0316610d7a565b34801561068957600080fd5b50610321600480360360408110156106a057600080fd5b506001600160a01b0381358116916020013516610e59565b3480156106c457600080fd5b50610321610e84565b3480156106d957600080fd5b506102f8610e89565b3480156106ee57600080fd5b50610321610e92565b34801561070357600080fd5b506105586004803603602081101561071a57600080fd5b50356001600160a01b0316610e98565b34801561073657600080fd5b50610321610f77565b34801561074b57600080fd5b506105586004803603602081101561076257600080fd5b50356001600160a01b0316610f7d565b60038054604080516020601f60026000196101006001881615020190951694909404938401819004810282018101909252828152606093909290918301828280156107fe5780601f106107d3576101008083540402835291602001916107fe565b820191906000526020600020905b8154815290600101906020018083116107e157829003601f168201915b505050505090505b90565b600061081d6108166110ec565b84846110f0565b5060015b92915050565b60105481565b6009546001600160a01b031681565b60025490565b600a5481565b60006108558484846111dc565b6108c5846108616110ec565b6108c085604051806060016040528060288152602001611f71602891396001600160a01b038a1660009081526001602052604081209061089f6110ec565b6001600160a01b0316815260208101919091526040016000205491906113ab565b6110f0565b5060019392505050565b600481565b6006546001600160a01b031681565b60055460ff1690565b600581565b600061081d6108fe6110ec565b846108c0856001600061090f6110ec565b6001600160a01b03908116825260208083019390935260409182016000908120918c16815292529020549061108b565b6007546001600160a01b031681565b600181565b6008546001600160a01b031681565b60116020526000908152604090205460ff1681565b600e5481565b600281565b6001600160a01b031660009081526020819052604090205490565b6109a56110ec565b6001600160a01b03166109b6610c7e565b6001600160a01b0316146109ff576040805162461bcd60e51b81526020600482018190526024820152600080516020611f99833981519152604482015290519081900360640190fd5b60055460405160009161010090046001600160a01b0316907f8be0079c531659141344cd1fd0a4f28419497f9722a3daafe3b4186f6b6457e0908390a360058054610100600160a81b0319169055565b600b5460009060ff16610a6457506019610806565b600c5460011415610a7757506019610806565b600c5460021415610a8a5750600f610806565b600c5460031415610a9d57506005610806565b506000610806565b600b5460009060ff16610ac15750670de0b6b3a7640000610806565b600080600860009054906101000a90046001600160a01b03166001600160a01b0316630902f1ac6040518163ffffffff1660e01b815260040160606040518083038186803b158015610b1257600080fd5b505afa158015610b26573d6000803e3d6000fd5b505050506040513d6060811015610b3c57600080fd5b50805160209091015190925090506001600160701b0382161580610b6757506001600160701b038116155b15610b7e57670de0b6b3a764000092505050610806565b60085460408051630dfe168160e01b815290516000926001600160a01b031691630dfe1681916004808301926020929190829003018186803b158015610bc357600080fd5b505afa158015610bd7573d6000803e3d6000fd5b505050506040513d6020811015610bed57600080fd5b505190506001600160a01b038116301460008115610c3557610c2e6001600160701b0380871690610c28908716670de0b6b3a7640000611442565b9061149b565b9050610c5b565b610c586001600160701b0380861690610c28908816670de0b6b3a7640000611442565b90505b600a54610c7490610c2883670de0b6b3a7640000611442565b9550505050505090565b60055461010090046001600160a01b031690565b60048054604080516020601f60026000196101006001881615020190951694909404938401819004810282018101909252828152606093909290918301828280156107fe5780601f106107d3576101008083540402835291602001916107fe565b600f5481565b600061081d610d066110ec565b846108c08560405180606001604052806025815260200161204c6025913960016000610d306110ec565b6001600160a01b03908116825260208083019390935260409182016000908120918d168152925290205491906113ab565b600061081d610d6e6110ec565b84846111dc565b600f81565b610d826110ec565b6001600160a01b0316610d93610c7e565b6001600160a01b031614610ddc576040805162461bcd60e51b81526020600482018190526024820152600080516020611f99833981519152604482015290519081900360640190fd5b6001600160a01b038116610e37576040805162461bcd60e51b815260206004820152601a60248201527f44657620616464726573732063616e6e6f74206265207a65726f000000000000604482015290519081900360640190fd5b600780546001600160a01b0319166001600160a01b0392909216919091179055565b6001600160a01b03918216600090815260016020908152604080832093909416825291909152205490565b601981565b600b5460ff1681565b600d5481565b610ea06110ec565b6001600160a01b0316610eb1610c7e565b6001600160a01b031614610efa576040805162461bcd60e51b81526020600482018190526024820152600080516020611f99833981519152604482015290519081900360640190fd5b6001600160a01b038116610f55576040805162461bcd60e51b815260206004820152601b60248201527f4e6f646520616464726573732063616e6e6f74206265207a65726f0000000000604482015290519081900360640190fd5b600680546001600160a01b0319166001600160a01b0392909216919091179055565b600c5481565b610f856110ec565b6001600160a01b0316610f96610c7e565b6001600160a01b031614610fdf576040805162461bcd60e51b81526020600482018190526024820152600080516020611f99833981519152604482015290519081900360640190fd5b6001600160a01b0381166110245760405162461bcd60e51b8152600401808060200182810382526026815260200180611ee26026913960400191505060405180910390fd5b6005546040516001600160a01b0380841692610100900416907f8be0079c531659141344cd1fd0a4f28419497f9722a3daafe3b4186f6b6457e090600090a3600580546001600160a01b0390921661010002610100600160a81b0319909216919091179055565b6000828201838110156110e5576040805162461bcd60e51b815260206004820152601b60248201527f536166654d6174683a206164646974696f6e206f766572666c6f770000000000604482015290519081900360640190fd5b9392505050565b3390565b6001600160a01b0383166111355760405162461bcd60e51b81526004018080602001828103825260248152602001806120286024913960400191505060405180910390fd5b6001600160a01b03821661117a5760405162461bcd60e51b8152600401808060200182810382526022815260200180611f086022913960400191505060405180910390fd5b6001600160a01b03808416600081815260016020908152604080832094871680845294825291829020859055815185815291517f8c5be1e5ebec7d5bd14f71427d1e84f3dd0314c0f7b2291e5b200ac8c7c3b9259281900390910190a3505050565b6001600160a01b0383166112215760405162461bcd60e51b81526004018080602001828103825260258152602001806120036025913960400191505060405180910390fd5b6001600160a01b0382166112665760405162461bcd60e51b8152600401808060200182810382526023815260200180611e9d6023913960400191505060405180910390fd5b600081116112a55760405162461bcd60e51b8152600401808060200182810382526029815260200180611fb96029913960400191505060405180910390fd5b6008546001600160a01b0390811683821681149185161481806112c55750805b80156112d35750600b5460ff165b156112e0576112e0611502565b6a115eec47f6cf7e350000006112f530610982565b10158015611306575060125460ff16155b801561132057506008546001600160a01b03868116911614155b15611339576113396a115eec47f6cf7e35000000611693565b81801561135f57506001600160a01b03851660009081526011602052604090205460ff16155b801561138457506001600160a01b03841660009081526011602052604090205460ff16155b1561139957611394858585611730565b6113a4565b6113a4858585611962565b5050505050565b6000818484111561143a5760405162461bcd60e51b81526004018080602001828103825283818151815260200191508051906020019080838360005b838110156113ff5781810151838201526020016113e7565b50505050905090810190601f16801561142c5780820380516001836020036101000a031916815260200191505b509250505060405180910390fd5b505050900390565b60008261145157506000610821565b8282028284828161145e57fe5b04146110e55760405162461bcd60e51b8152600401808060200182810382526021815260200180611f506021913960400191505060405180910390fd5b60008082116114f1576040805162461bcd60e51b815260206004820152601a60248201527f536166654d6174683a206469766973696f6e206279207a65726f000000000000604482015290519081900360640190fd5b8183816114fa57fe5b049392505050565b600b5460ff1661151157611691565b600061151b610aa5565b90506000683635c9adc5dea0000082106115375750600461156b565b681b1ae4d6e2ef500000821061154f5750600361156b565b6802c3c465ca58ec000082106115675750600261156b565b5060015b600e548110156115d7576000600f819055601055600c548110156115d757600c80549082905543600d55604080518281526020810184905280820185905290517fad9b69bc3ccab1c4d397c469376e59cb05d8c2e4c43e15e024601d3f16b83e6d9181900360600190a1505b600e819055600c54811461167b57600f5415806115f6575080600f5414155b1561160957600f81905543601055611676565b601054611618906103e861108b565b431061167657600c80549082905543600d556000600f819055601055604080518281526020810184905280820185905290517fad9b69bc3ccab1c4d397c469376e59cb05d8c2e4c43e15e024601d3f16b83e6d9181900360600190a1505b61168e565b600f541561168e576000600f8190556010555b50505b565b6012805460ff1916600117905560006116ad82600261149b565b905060006116bb8383611abd565b9050476116c783611b1a565b60006116d34783611abd565b90506116df8382611cc8565b604080518581526020810183905280820185905290517f17bbfb9a6069321b6ded73bd96327c9e6b7212a5cd51ff219cd61370acafb5619181900360600190a150506012805460ff19169055505050565b600061173a610a4f565b9050600080821561175b576117546064610c288686611442565b9150600090505b600061176d6064610c28876002611442565b905060006117816064610c28886001611442565b905060006117956064610c28896001611442565b905060006117a96064610c288a6001611442565b90506117b5868261108b565b955060006117d1836117cb868189818c8e61108b565b9061108b565b905088811115611828576040805162461bcd60e51b815260206004820152601b60248201527f4665652065786365656473207472616e7366657220616d6f756e740000000000604482015290519081900360640190fd5b60006118348a83611abd565b905087156118fc57600061184661083c565b90506a115eec47f6cf7e3500000061185e828b611abd565b10156118b1576040805162461bcd60e51b815260206004820181905260248201527f4275726e20776f756c6420657863656564206d696e696d756d20737570706c79604482015290519081900360640190fd5b6118bb8d8a611d9b565b604080518a815290516001600160a01b038f16917fcc16f5dbb4873280815c1ee09dbd06736cffcc184412cf7a71a0fdb75d397ca5919081900360200190a2505b6119078c8c83611962565b8515611918576119188c3088611962565b841561193657600654611936908d906001600160a01b031687611962565b831561195457600754611954908d906001600160a01b031686611962565b505050505050505050505050565b6001600160a01b0383166119a75760405162461bcd60e51b81526004018080602001828103825260258152602001806120036025913960400191505060405180910390fd5b6001600160a01b0382166119ec5760405162461bcd60e51b8152600401808060200182810382526023815260200180611e9d6023913960400191505060405180910390fd5b6119f7838383611e97565b611a3481604051806060016040528060268152602001611f2a602691396001600160a01b03861660009081526020819052604090205491906113ab565b6001600160a01b038085166000908152602081905260408082209390935590841681522054611a63908261108b565b6001600160a01b038084166000818152602081815260409182902094909455805185815290519193928716927fddf252ad1be2c89b69c2b068fc378daa952ba7f163c4a11628f55a4df523b3ef92918290030190a3505050565b600082821115611b14576040805162461bcd60e51b815260206004820152601e60248201527f536166654d6174683a207375627472616374696f6e206f766572666c6f770000604482015290519081900360640190fd5b50900390565b60408051600280825260608083018452926020830190803683370190505090503081600081518110611b4857fe5b6001600160a01b03928316602091820292909201810191909152600954604080516315ab88c960e31b81529051919093169263ad5c4648926004808301939192829003018186803b158015611b9c57600080fd5b505afa158015611bb0573d6000803e3d6000fd5b505050506040513d6020811015611bc657600080fd5b5051815182906001908110611bd757fe5b6001600160a01b039283166020918202929092010152600954611bfd91309116846110f0565b60095460405163791ac94760e01b8152600481018481526000602483018190523060648401819052426084850181905260a060448601908152875160a487015287516001600160a01b039097169663791ac947968a968a9594939092909160c40190602080880191028083838b5b83811015611c83578181015183820152602001611c6b565b505050509050019650505050505050600060405180830381600087803b158015611cac57600080fd5b505af1158015611cc0573d6000803e3d6000fd5b505050505050565b600954611ce09030906001600160a01b0316846110f0565b6009546001600160a01b031663f305d719823085600080611cff610c7e565b426040518863ffffffff1660e01b815260040180876001600160a01b03168152602001868152602001858152602001848152602001836001600160a01b0316815260200182815260200196505050505050506060604051808303818588803b158015611d6a57600080fd5b505af1158015611d7e573d6000803e3d6000fd5b50505050506040513d6060811015611d9557600080fd5b50505050565b6001600160a01b038216611de05760405162461bcd60e51b8152600401808060200182810382526021815260200180611fe26021913960400191505060405180910390fd5b611dec82600083611e97565b611e2981604051806060016040528060228152602001611ec0602291396001600160a01b03851660009081526020819052604090205491906113ab565b6001600160a01b038316600090815260208190526040902055600254611e4f9082611abd565b6002556040805182815290516000916001600160a01b038516917fddf252ad1be2c89b69c2b068fc378daa952ba7f163c4a11628f55a4df523b3ef9181900360200190a35050565b50505056fe45524332303a207472616e7366657220746f20746865207a65726f206164647265737345524332303a206275726e20616d6f756e7420657863656564732062616c616e63654f776e61626c653a206e6577206f776e657220697320746865207a65726f206164647265737345524332303a20617070726f766520746f20746865207a65726f206164647265737345524332303a207472616e7366657220616d6f756e7420657863656564732062616c616e6365536166654d6174683a206d756c7469706c69636174696f6e206f766572666c6f7745524332303a207472616e7366657220616d6f756e74206578636565647320616c6c6f77616e63654f776e61626c653a2063616c6c6572206973206e6f7420746865206f776e65725472616e7366657220616d6f756e74206d7573742062652067726561746572207468616e207a65726f45524332303a206275726e2066726f6d20746865207a65726f206164647265737345524332303a207472616e736665722066726f6d20746865207a65726f206164647265737345524332303a20617070726f76652066726f6d20746865207a65726f206164647265737345524332303a2064656372656173656420616c6c6f77616e63652062656c6f77207a65726fa2646970667358221220e15b680691a1952310a5303ca0070c3ca5d0a81231cfb3025ff036af4256ab1f64736f6c634300060c0033496e697469616c20737570706c7920726563697069656e742063616e6e6f74206265207a65726f",
  "linkReferences": {},
  "deployedLinkReferences": {}
}